{
  "_format": "hh-sol-artifact-1",
  "contractName": "EscrowMAD",
  "sourceName": "contracts/EscrowMAD.sol",
  "abi": [
    {
      "inputs": [
        {
          "internalType": "uint256",
          "name": "_itemPrice",
          "type": "uint256"
        },
        {
          "internalType": "string",
          "name": "_description",
          "type": "string"
        }
      ],
      "stateMutability": "payable",
      "type": "constructor"
    },
    {
      "anonymous": false,
      "inputs": [
        {
          "indexed": false,
          "internalType": "string",
          "name": "ipfsHash",
          "type": "string"
        }
      ],
      "name": "BuyerAddressSubmitted",
      "type": "event"
    },
    {
      "anonymous": false,
      "inputs": [
        {
          "indexed": true,
          "internalType": "address",
          "name": "buyer",
          "type": "address"
        }
      ],
      "name": "BuyerJoined",
      "type": "event"
    },
    {
      "anonymous": false,
      "inputs": [
        {
          "indexed": true,
          "internalType": "address",
          "name": "by",
          "type": "address"
        }
      ],
      "name": "CancelRequestWithdrawn",
      "type": "event"
    },
    {
      "anonymous": false,
      "inputs": [
        {
          "indexed": true,
          "internalType": "address",
          "name": "by",
          "type": "address"
        }
      ],
      "name": "CancelRequested",
      "type": "event"
    },
    {
      "anonymous": false,
      "inputs": [],
      "name": "DeliveryConfirmed",
      "type": "event"
    },
    {
      "anonymous": false,
      "inputs": [
        {
          "indexed": false,
          "internalType": "string",
          "name": "ipfsHash",
          "type": "string"
        }
      ],
      "name": "DeliveryProofUploaded",
      "type": "event"
    },
    {
      "anonymous": false,
      "inputs": [],
      "name": "EscrowCancelled",
      "type": "event"
    },
    {
      "anonymous": false,
      "inputs": [
        {
          "indexed": false,
          "internalType": "string",
          "name": "ipfsHash",
          "type": "string"
        }
      ],
      "name": "ItemImageUploaded",
      "type": "event"
    },
    {
      "anonymous": false,
      "inputs": [
        {
          "indexed": true,
          "internalType": "address",
          "name": "from",
          "type": "address"
        },
        {
          "indexed": false,
          "internalType": "string",
          "name": "message",
          "type": "string"
        },
        {
          "indexed": false,
          "internalType": "uint256",
          "name": "timestamp",
          "type": "uint256"
        }
      ],
      "name": "MessageSent",
      "type": "event"
    },
    {
      "anonymous": false,
      "inputs": [],
      "name": "MutualCancelCompleted",
      "type": "event"
    },
    {
      "anonymous": false,
      "inputs": [],
      "name": "ReturnApproved",
      "type": "event"
    },
    {
      "anonymous": false,
      "inputs": [],
      "name": "ReturnAutoApproved",
      "type": "event"
    },
    {
      "anonymous": false,
      "inputs": [
        {
          "indexed": true,
          "internalType": "address",
          "name": "by",
          "type": "address"
        }
      ],
      "name": "ReturnRequestWithdrawn",
      "type": "event"
    },
    {
      "anonymous": false,
      "inputs": [
        {
          "indexed": true,
          "internalType": "address",
          "name": "by",
          "type": "address"
        },
        {
          "indexed": false,
          "internalType": "string",
          "name": "evidenceHash",
          "type": "string"
        }
      ],
      "name": "ReturnRequested",
      "type": "event"
    },
    {
      "anonymous": false,
      "inputs": [],
      "name": "SellerClaimedAfterTimeout",
      "type": "event"
    },
    {
      "inputs": [],
      "name": "ACTIVE_TIMEOUT",
      "outputs": [
        {
          "internalType": "uint256",
          "name": "",
          "type": "uint256"
        }
      ],
      "stateMutability": "view",
      "type": "function"
    },
    {
      "inputs": [],
      "name": "AWAITING_TIMEOUT",
      "outputs": [
        {
          "internalType": "uint256",
          "name": "",
          "type": "uint256"
        }
      ],
      "stateMutability": "view",
      "type": "function"
    },
    {
      "inputs": [],
      "name": "RETURN_TIMEOUT",
      "outputs": [
        {
          "internalType": "uint256",
          "name": "",
          "type": "uint256"
        }
      ],
      "stateMutability": "view",
      "type": "function"
    },
    {
      "inputs": [],
      "name": "activeAt",
      "outputs": [
        {
          "internalType": "uint256",
          "name": "",
          "type": "uint256"
        }
      ],
      "stateMutability": "view",
      "type": "function"
    },
    {
      "inputs": [],
      "name": "approveCancel",
      "outputs": [],
      "stateMutability": "nonpayable",
      "type": "function"
    },
    {
      "inputs": [],
      "name": "approveReturn",
      "outputs": [],
      "stateMutability": "nonpayable",
      "type": "function"
    },
    {
      "inputs": [],
      "name": "buyer",
      "outputs": [
        {
          "internalType": "address",
          "name": "",
          "type": "address"
        }
      ],
      "stateMutability": "view",
      "type": "function"
    },
    {
      "inputs": [],
      "name": "buyerAddressHash",
      "outputs": [
        {
          "internalType": "string",
          "name": "",
          "type": "string"
        }
      ],
      "stateMutability": "view",
      "type": "function"
    },
    {
      "inputs": [],
      "name": "cancelAfter24h",
      "outputs": [],
      "stateMutability": "nonpayable",
      "type": "function"
    },
    {
      "inputs": [],
      "name": "claimAfterBuyerTimeout",
      "outputs": [],
      "stateMutability": "nonpayable",
      "type": "function"
    },
    {
      "inputs": [],
      "name": "confirmDelivery",
      "outputs": [],
      "stateMutability": "nonpayable",
      "type": "function"
    },
    {
      "inputs": [],
      "name": "createdAt",
      "outputs": [
        {
          "internalType": "uint256",
          "name": "",
          "type": "uint256"
        }
      ],
      "stateMutability": "view",
      "type": "function"
    },
    {
      "inputs": [],
      "name": "deliveryProofHash",
      "outputs": [
        {
          "internalType": "string",
          "name": "",
          "type": "string"
        }
      ],
      "stateMutability": "view",
      "type": "function"
    },
    {
      "inputs": [],
      "name": "deposit",
      "outputs": [
        {
          "internalType": "uint256",
          "name": "",
          "type": "uint256"
        }
      ],
      "stateMutability": "view",
      "type": "function"
    },
    {
      "inputs": [],
      "name": "executeReturnAfterTimeout",
      "outputs": [],
      "stateMutability": "nonpayable",
      "type": "function"
    },
    {
      "inputs": [],
      "name": "getBalance",
      "outputs": [
        {
          "internalType": "uint256",
          "name": "",
          "type": "uint256"
        }
      ],
      "stateMutability": "view",
      "type": "function"
    },
    {
      "inputs": [],
      "name": "getInfo",
      "outputs": [
        {
          "internalType": "address",
          "name": "_seller",
          "type": "address"
        },
        {
          "internalType": "address",
          "name": "_buyer",
          "type": "address"
        },
        {
          "internalType": "uint256",
          "name": "_itemPrice",
          "type": "uint256"
        },
        {
          "internalType": "uint256",
          "name": "_deposit",
          "type": "uint256"
        },
        {
          "internalType": "enum EscrowMAD.State",
          "name": "_state",
          "type": "uint8"
        },
        {
          "internalType": "uint256",
          "name": "_createdAt",
          "type": "uint256"
        },
        {
          "internalType": "uint256",
          "name": "_activeAt",
          "type": "uint256"
        },
        {
          "internalType": "uint256",
          "name": "_requestedAt",
          "type": "uint256"
        },
        {
          "internalType": "address",
          "name": "_requestInitiator",
          "type": "address"
        },
        {
          "internalType": "string",
          "name": "_description",
          "type": "string"
        },
        {
          "internalType": "string",
          "name": "_itemImageHash",
          "type": "string"
        },
        {
          "internalType": "string",
          "name": "_buyerAddressHash",
          "type": "string"
        },
        {
          "internalType": "string",
          "name": "_deliveryProofHash",
          "type": "string"
        },
        {
          "internalType": "string",
          "name": "_returnEvidenceHash",
          "type": "string"
        }
      ],
      "stateMutability": "view",
      "type": "function"
    },
    {
      "inputs": [],
      "name": "getState",
      "outputs": [
        {
          "internalType": "enum EscrowMAD.State",
          "name": "",
          "type": "uint8"
        }
      ],
      "stateMutability": "view",
      "type": "function"
    },
    {
      "inputs": [],
      "name": "itemDescription",
      "outputs": [
        {
          "internalType": "string",
          "name": "",
          "type": "string"
        }
      ],
      "stateMutability": "view",
      "type": "function"
    },
    {
      "inputs": [],
      "name": "itemImageHash",
      "outputs": [
        {
          "internalType": "string",
          "name": "",
          "type": "string"
        }
      ],
      "stateMutability": "view",
      "type": "function"
    },
    {
      "inputs": [],
      "name": "itemPrice",
      "outputs": [
        {
          "internalType": "uint256",
          "name": "",
          "type": "uint256"
        }
      ],
      "stateMutability": "view",
      "type": "function"
    },
    {
      "inputs": [
        {
          "internalType": "string",
          "name": "_addressHash",
          "type": "string"
        }
      ],
      "name": "joinAsBuyer",
      "outputs": [],
      "stateMutability": "payable",
      "type": "function"
    },
    {
      "inputs": [],
      "name": "requestCancel",
      "outputs": [],
      "stateMutability": "nonpayable",
      "type": "function"
    },
    {
      "inputs": [],
      "name": "requestInitiator",
      "outputs": [
        {
          "internalType": "address",
          "name": "",
          "type": "address"
        }
      ],
      "stateMutability": "view",
      "type": "function"
    },
    {
      "inputs": [
        {
          "internalType": "string",
          "name": "evidenceHash",
          "type": "string"
        }
      ],
      "name": "requestReturn",
      "outputs": [],
      "stateMutability": "nonpayable",
      "type": "function"
    },
    {
      "inputs": [],
      "name": "requestedAt",
      "outputs": [
        {
          "internalType": "uint256",
          "name": "",
          "type": "uint256"
        }
      ],
      "stateMutability": "view",
      "type": "function"
    },
    {
      "inputs": [],
      "name": "returnEvidenceHash",
      "outputs": [
        {
          "internalType": "string",
          "name": "",
          "type": "string"
        }
      ],
      "stateMutability": "view",
      "type": "function"
    },
    {
      "inputs": [],
      "name": "seller",
      "outputs": [
        {
          "internalType": "address",
          "name": "",
          "type": "address"
        }
      ],
      "stateMutability": "view",
      "type": "function"
    },
    {
      "inputs": [
        {
          "internalType": "string",
          "name": "message",
          "type": "string"
        }
      ],
      "name": "sendMessage",
      "outputs": [],
      "stateMutability": "nonpayable",
      "type": "function"
    },
    {
      "inputs": [],
      "name": "state",
      "outputs": [
        {
          "internalType": "enum EscrowMAD.State",
          "name": "",
          "type": "uint8"
        }
      ],
      "stateMutability": "view",
      "type": "function"
    },
    {
      "inputs": [
        {
          "internalType": "string",
          "name": "ipfsHash",
          "type": "string"
        }
      ],
      "name": "uploadDeliveryProof",
      "outputs": [],
      "stateMutability": "nonpayable",
      "type": "function"
    },
    {
      "inputs": [
        {
          "internalType": "string",
          "name": "ipfsHash",
          "type": "string"
        }
      ],
      "name": "uploadItemImage",
      "outputs": [],
      "stateMutability": "nonpayable",
      "type": "function"
    },
    {
      "inputs": [],
      "name": "withdrawCancelRequest",
      "outputs": [],
      "stateMutability": "nonpayable",
      "type": "function"
    },
    {
      "inputs": [],
      "name": "withdrawReturnRequest",
      "outputs": [],
      "stateMutability": "nonpayable",
      "type": "function"
    }
  ],
  "bytecode": "0x604060a081526200241c8038038062000018816200037b565b9283398101908281830312620003765780516020808301516001600160401b039384821162000376570193601f91818387011215620003765785518581116200028d57601f199662000070828601891684016200037b565b938285528383830101116200037657829060005b838110620003615750506000918401015283156200032a5760058406620002e75760058404803403620002a35733608052600194855560025581519485116200028d576008548481811c9116801562000282575b828210146200026c5783811162000220575b5080928511600114620001b5575083945090839291600094620001a9575b50501b916000199060031b1c1916176008555b60ff1960035416600355426004555161207a9081620003a282396080518181816101a801528181610322015281816105ac015281816106a4015281816107fa015281816108bd01528181610af701528181610c8301528181610d8501528181610e8e01528181611096015281816111a3015281816114420152818161148d015281816115b501526118b60152f35b01519250388062000108565b929484908116600860005284600020946000905b88838310620002055750505010620001eb575b505050811b016008556200011b565b015160001960f88460031b161c19169055388080620001dc565b858701518855909601959485019487935090810190620001c9565b6008600052816000208480880160051c82019284891062000262575b0160051c019085905b82811062000255575050620000ea565b6000815501859062000245565b925081926200023c565b634e487b7160e01b600052602260045260246000fd5b90607f1690620000d8565b634e487b7160e01b600052604160045260246000fd5b875162461bcd60e51b815260048101839052601c60248201527f53656c6c6572206d7573742073656e6420323025206465706f736974000000006044820152606490fd5b60649087519062461bcd60e51b82526004820152601c60248201527f5072696365206d75737420626520646976697369626c652062792035000000006044820152fd5b60649087519062461bcd60e51b82526004820152601160248201527005072696365206d757374206265203e203607c1b6044820152fd5b81810183015186820184015284920162000084565b600080fd5b6040519190601f01601f191682016001600160401b038111838210176200028d5760405256fe60406080815260048036101561001457600080fd5b600090813560e01c80630188ec731461189a57806301f170711461158d578063031b64761461147157806308551a531461142d57806312065fe0146114125780631865c57d1461056757806318fd5582146113e95780631e4ac1cf1461118257806327a5d39d14611083578063325ed3b2146110655780634643cc6214611046578063469c811014610e6e57806350a1122c14610e50578063528ede5314610e325780635a9b0b8914610d135780635be8f7f014610cf55780635e10177b14610bfa57806367b09bc614610bdc5780637150d8ae14610bb45780637428a07514610ada5780637b53d17b14610abb5780638866d881146108a657806396041473146107805780639f36522614610762578063a0d3db8514610685578063ad70c2ef14610590578063c19d93fb14610567578063cf09e0d014610544578063d0e30db014610525578063dac6db1c14610506578063eacbc0471461030b578063ec66556d146102d6578063f55d44de146102b85763fdf55cfd1461019657600080fd5b346102b457816003193601126102b4577f0000000000000000000000000000000000000000000000000000000000000000906101dc336001600160a01b03841614611d95565b6003549060ff821660078110156102a1576101f79015611e40565b805462015180810180911161028e57421061024b575060ff1916600517600355610248907f6e3be9294e58d10b9c8053cfd5e09871b67e442fe394d6b0870d336b9df984a98380a160025490611f77565b80f35b606490602086519162461bcd60e51b8352820152601860248201527f43616e6e6f742063616e63656c206265666f72652032346800000000000000006044820152fd5b634e487b7160e01b855260118252602485fd5b634e487b7160e01b855260218252602485fd5b5080fd5b8284346102b457816003193601126102b45760209051620151808152f35b8284346102b457816003193601126102b457610307906102f4611cbc565b9051918291602083526020830190611d55565b0390f35b50346102b45761031a36611961565b9091610350337f00000000000000000000000000000000000000000000000000000000000000006001600160a01b031614611d95565b61035b821515611dcf565b67ffffffffffffffff82116104f357506103766009546119d3565b601f811161049a575b508293601f82116001146103f4576103e3908285967fa3cc05e878f880f86e371b6723f5a766984eed8b4a7d11f1a29c6fcf48a6367196916103e9575b508360011b906000198560031b1c1916176009555b51928392602084526020840191611e1f565b0390a180f35b9050840135386103bc565b600984527f6e1540171b6c0c960b71a7020d9f60077f6af931a8bbf590da0223dacf75c7af601f198316855b8181106104825750907fa3cc05e878f880f86e371b6723f5a766984eed8b4a7d11f1a29c6fcf48a636719596846103e3949310610468575b5050600183811b016009556103d1565b850135600019600386901b60f8161c191690553880610458565b85880135835560209788019760019093019201610420565b6104e390600985527f6e1540171b6c0c960b71a7020d9f60077f6af931a8bbf590da0223dacf75c7af601f840160051c810191602085106104e9575b601f0160051c0190611e08565b3861037f565b90915081906104d6565b634e487b7160e01b845260419052602483fd5b8284346102b457816003193601126102b4576020906001549051908152f35b8284346102b457816003193601126102b4576020906002549051908152f35b5082903461056357826003193601126105635760209250549051908152f35b8280fd5b8284346102b457816003193601126102b45760209061058e60ff60035416915180926119b0565bf35b5090346106825780600319360112610682576001600160a01b037f000000000000000000000000000000000000000000000000000000000000000033828216148015610676575b6105e090611e9f565b60035460ff81166007811015610663579461064b92916106066003610248979814611e40565b6106168560075416331415611f2b565b60ff1916176003557f9862576a300b3bed54bba0db4dc02b7313d9230ba8efecb62ff47560c163c7d68580a160025490611f77565b82541661065d60015460025490611e7c565b90611f77565b634e487b7160e01b855260218652602485fd5b508254821633146105d7565b80fd5b5090346106825780600319360112610682576106d460018060a01b03807f0000000000000000000000000000000000000000000000000000000000000000163314908115610755575b50611e9f565b60035460ff811692600784101561074257506106f560016002939414611e40565b60ff191617600355336bffffffffffffffffffffffff60a01b600754161760075542600655337f9bda95e0011a0edf665b10fed5fd47db17c8b82473e6936198b1ff1077fdbd548280a280f35b634e487b7160e01b835260219052602482fd5b90508254163314846106ce565b8284346102b457816003193601126102b457610307906102f4611c23565b5082346105635782600319360112610563576003549060ff821660078110156108935760036107af9114611e40565b6006546203f480810180911161088057421061083e575060ff1916176003557fcf84ae15645f9e57b6c16e00826c8a689a0db255e40eb428792882373ff0d0828180a161081e6002547f0000000000000000000000000000000000000000000000000000000000000000611f77565b8054600154600254610248926001600160a01b03169161065d9190611e7c565b5162461bcd60e51b8152602081840152601760248201527f3732682074696d656f7574206e6f7420726561636865640000000000000000006044820152606490fd5b634e487b7160e01b855260118452602485fd5b634e487b7160e01b855260218452602485fd5b50346102b4576108b536611961565b90916108eb337f00000000000000000000000000000000000000000000000000000000000000006001600160a01b031614611d95565b60ff60035416906007821015610aa8576109086001809314611e40565b610913831515611dcf565b67ffffffffffffffff8311610a95575061092e600b546119d3565b601f8111610a47575b5083601f83116001146109a3579482806103e39387987f5ed51c42205b85daf4b2f11a6297e2f74595de4097ee14abf6949582137528b19893610998575b501b906000198560031b1c191617600b5551928392602084526020840191611e1f565b870135925038610975565b600b85527f0175b7a638427703f0dbe7bb9bbf987a2551717b34e79f33b5b1008d1fa01db990601f198416865b818110610a315750916103e39391857f5ed51c42205b85daf4b2f11a6297e2f74595de4097ee14abf6949582137528b198999410610a17575b505083811b01600b556103d1565b860135600019600387901b60f8161c191690553880610a09565b86830135845592840192602092830192016109d0565b610a8f90600b86527f0175b7a638427703f0dbe7bb9bbf987a2551717b34e79f33b5b1008d1fa01db9601f850160051c810191602086106104e957601f0160051c0190611e08565b38610937565b634e487b7160e01b855260419052602484fd5b634e487b7160e01b855260219052602484fd5b8284346102b457816003193601126102b4576020906006549051908152f35b5090346106825780600319360112610682576001600160a01b03337f00000000000000000000000000000000000000000000000000000000000000008216148015610ba8575b610b2990611e9f565b60035460ff81166007811015610b955790610b48600260019314611e40565b610b586007549384163314611edf565b60ff1916176003556001600160a01b031916600755337f6e22c40ad146ade52d5e77b3bdb9a042e0f043c39879891f461a5d43857d5e3e8280a280f35b634e487b7160e01b845260218552602484fd5b50815481163314610b20565b8284346102b457816003193601126102b457905490516001600160a01b039091168152602090f35b8284346102b457816003193601126102b457602090516203f4808152f35b5091346102b457816003193601126102b45781546001600160a01b03919082163303610cc657506003549260ff8416936007851015610cb357610c436001610248959614611e40565b60ff1916176003557f4cfed5a6b337f78f2df5b8499b67efc08ce0d2cbed5d1be5c62bb6e0295e87858380a1610ca7610c8160015460025490611e7c565b7f0000000000000000000000000000000000000000000000000000000000000000611f77565b82541660025490611f77565b634e487b7160e01b845260218252602484fd5b5162461bcd60e51b8152602081850152600a60248201526927b7363c90313abcb2b960b11b6044820152606490fd5b8284346102b457816003193601126102b45760209051621275008152f35b5091346102b457816003193601126102b457600160a01b600190038092541692600154906002549060035460ff169054600554600654876007541691610d57611c23565b93610d60611a45565b95610d69611cbc565b97610d72611b8a565b99610d7b611b03565b9b80519e8f9e8f907f0000000000000000000000000000000000000000000000000000000000000000168152602001528d015260608c015260808b01610dc0916119b0565b60a08a015260c089015260e08801526101008701526101c0806101208801528601610dea91611d55565b858103610140870152610dfc91611d55565b848103610160860152610e0e91611d55565b838103610180850152610e2091611d55565b8281036101a084015261030791611d55565b8284346102b457816003193601126102b457610307906102f4611b8a565b8284346102b457816003193601126102b457610307906102f4611b03565b5082903461056357610e7f36611961565b9091610ebd60018060a01b03807f00000000000000000000000000000000000000000000000000000000000000001633149081156110395750611e9f565b60ff60035416600781101590816110265760018114918215611019575b8215610ff5575b505015610fb2578115610f7f576101f48211610f3c57507f4816bdd3b9d39acdd4da0ae7412d5523081e916c6a56e481063e475b86ef7c5b91610f2c91845194808652850191611e1f565b914260208201528033930390a280f35b606490602085519162461bcd60e51b8352820152602060248201527f4d65737361676520746f6f206c6f6e6720286d617820353030206368617273296044820152fd5b606490602085519162461bcd60e51b8352820152600d60248201526c456d707479206d65737361676560981b6044820152fd5b606490602085519162461bcd60e51b8352820152601c60248201527f43616e6e6f74206d65737361676520696e2074686973207374617465000000006044820152fd5b909150611006576003148680610ee1565b634e487b7160e01b865260218252602486fd5b5060028114915086610eda565b634e487b7160e01b875260218352602487fd5b90508654163314876106ce565b8284346102b457816003193601126102b4576020906005549051908152f35b8284346102b457816003193601126102b457610307906102f4611a45565b50346102b457816003193601126102b4577f0000000000000000000000000000000000000000000000000000000000000000906110ca336001600160a01b03841614611d95565b6003549060ff821660078110156102a15760016110e79114611e40565b60055462127500810180911161028e57421061113f575060ff1916600617600355610248907f19bfc4921b4eddc0836ef199c1bcbf8bd6be8c9010950b0e94430fdf27b680078380a161065d60015460025490611e7c565b606490602086519162461bcd60e51b8352820152601b60248201527f43616e6e6f7420636c61696d206265666f7265203134206461797300000000006044820152fd5b508290346105635761119336611961565b9290916111d260018060a01b03807f00000000000000000000000000000000000000000000000000000000000000001633149081156110395750611e9f565b6003549060ff82169160078310156113d6576111f16001809414611e40565b851561139b5760ff191660039081179055600780546001600160a01b031916331790554260065567ffffffffffffffff851161138857508390611235600c546119d3565b601f811161134c575b5085601f83116001146112b35791806112a294927fec1b648577d83b353f425684df80bc02e2b9ad9ab7e42951606a8ef418a934af969489936112a8575b501b906000198760031b1c191617600c555b519182916020835233956020840191611e1f565b0390a280f35b85013592508961127c565b600c87529091506000805160206120258339815191529085601f198116885b8181106113335750916112a29593917fec1b648577d83b353f425684df80bc02e2b9ad9ab7e42951606a8ef418a934af97959310611319575b505085811b01600c5561128e565b840135600019600389901b60f8161c19169055878061130b565b87840135855593850193602093840193899350016112d2565b61138290600c8852600080516020612025833981519152601f850160051c810191602086106104e957601f0160051c0190611e08565b8661123e565b634e487b7160e01b865260419052602485fd5b835162461bcd60e51b815260208184015260156024820152744d7573742070726f766964652065766964656e636560581b6044820152606490fd5b634e487b7160e01b875260218252602487fd5b8284346102b457816003193601126102b45760075490516001600160a01b039091168152602090f35b8284346102b457816003193601126102b45751478152602090f35b8284346102b457816003193601126102b457517f00000000000000000000000000000000000000000000000000000000000000006001600160a01b03168152602090f35b50346102b457816003193601126102b4576001600160a01b03337f00000000000000000000000000000000000000000000000000000000000000008216148015611581575b6114bf90611e9f565b6003549160ff8316906007821015610aa8575060036114de9114611e40565b6114ee6007549182163314611edf565b6001809260ff1916176003556bffffffffffffffffffffffff60a01b16600755611519600c546119d3565b601f8111611550575b826000600c55337f8dd49346fd04b7e48a0ce28df9d7722bb366c41c4bcc42afe6c71b27fb542d548280a280f35b601f600080516020612025833981519152910160051c8101905b8181106115775750611522565b838155820161156a565b508254811633146114b6565b5061159736611961565b909160ff6003541660078110156102a1576115b29015611e40565b337f00000000000000000000000000000000000000000000000000000000000000006001600160a01b03161461185e576001906115f3825460025490611e7c565b340361180b5782156117c85784546001600160a01b0319163317855567ffffffffffffffff8311610a95575061162a600a546119d3565b601f811161177a575b5083601f83116001146116d557946103e3918386977fbcdd10db8e25db6caf3ae8a13131c4d392cb098d836ab05d6e05451da7fcb0fb97916116ca575b50600019600386901b1c191684821b17600a555b60ff1960035416176003554260055551928392337f905e777bec48d02a92d6c589a2d950fd0b72402db8de95d97ec9c61e9a1c42b68880a2602084526020840191611e1f565b905085013538611670565b600a85527fc65a7bb8d6351c1cf70c95a316cc6a92839c986682d98bc35f958f4883f9d2a890601f198416865b8181106117645750916103e39391857fbcdd10db8e25db6caf3ae8a13131c4d392cb098d836ab05d6e05451da7fcb0fb9899941061174a575b50508084811b01600a55611684565b860135600019600387901b60f8161c19169055388061173b565b8683013584559284019260209283019201611702565b6117c290600a86527fc65a7bb8d6351c1cf70c95a316cc6a92839c986682d98bc35f958f4883f9d2a8601f850160051c810191602086106104e957601f0160051c0190611e08565b38611633565b606490602087519162461bcd60e51b8352820152601c60248201527f4d757374207375626d69742064656c69766572792061646472657373000000006044820152fd5b608490602087519162461bcd60e51b8352820152602760248201527f4275796572206d7573742073656e64206974656d5072696365202b203230252060448201526619195c1bdcda5d60ca1b6064820152fd5b606490602086519162461bcd60e51b8352820152601660248201527529b2b63632b91031b0b73737ba10313290313abcb2b960511b6044820152fd5b5090346106825780600319360112610682576001600160a01b037f000000000000000000000000000000000000000000000000000000000000000033828216148015611955575b6118ea90611e9f565b60035460ff81166007811015610663579461064b92916119106002610248979814611e40565b6119208560075416331415611f2b565b60ff1916176003557f4e411eec52abedf084d8d28163efb08e2ea30ae30819d081f8567991ca978a7d8580a160025490611f77565b508254821633146118e1565b9060206003198301126119ab5760043567ffffffffffffffff928382116119ab57806023830112156119ab5781600401359384116119ab57602484830101116119ab576024019190565b600080fd5b9060078210156119bd5752565b634e487b7160e01b600052602160045260246000fd5b90600182811c92168015611a03575b60208310146119ed57565b634e487b7160e01b600052602260045260246000fd5b91607f16916119e2565b90601f8019910116810190811067ffffffffffffffff821117611a2f57604052565b634e487b7160e01b600052604160045260246000fd5b6040519060008260095491611a59836119d3565b80835292600190818116908115611ae15750600114611a82575b50611a8092500383611a0d565b565b6009600090815291507f6e1540171b6c0c960b71a7020d9f60077f6af931a8bbf590da0223dacf75c7af5b848310611ac65750611a80935050810160200138611a73565b81935090816020925483858a01015201910190918592611aad565b905060209250611a8094915060ff191682840152151560051b82010138611a73565b60405190600082600c5491611b17836119d3565b80835292600190818116908115611ae15750600114611b3d5750611a8092500383611a0d565b600c600090815291506000805160206120258339815191525b848310611b6f5750611a80935050810160200138611a73565b81935090816020925483858a01015201910190918592611b56565b60405190600082600b5491611b9e836119d3565b80835292600190818116908115611ae15750600114611bc45750611a8092500383611a0d565b600b600090815291507f0175b7a638427703f0dbe7bb9bbf987a2551717b34e79f33b5b1008d1fa01db95b848310611c085750611a80935050810160200138611a73565b81935090816020925483858a01015201910190918592611bef565b6040519060008260085491611c37836119d3565b80835292600190818116908115611ae15750600114611c5d5750611a8092500383611a0d565b6008600090815291507ff3f7a9fe364faab93b216da50a3214154f22a0a2b415b23a84c8169e8b636ee35b848310611ca15750611a80935050810160200138611a73565b81935090816020925483858a01015201910190918592611c88565b60405190600082600a5491611cd0836119d3565b80835292600190818116908115611ae15750600114611cf65750611a8092500383611a0d565b600a600090815291507fc65a7bb8d6351c1cf70c95a316cc6a92839c986682d98bc35f958f4883f9d2a85b848310611d3a5750611a80935050810160200138611a73565b81935090816020925483858a01015201910190918592611d21565b919082519283825260005b848110611d81575050826000602080949584010152601f8019910116010190565b602081830181015184830182015201611d60565b15611d9c57565b60405162461bcd60e51b815260206004820152600b60248201526a27b7363c9039b2b63632b960a91b6044820152606490fd5b15611dd657565b60405162461bcd60e51b815260206004820152600a60248201526908adae0e8f240d0c2e6d60b31b6044820152606490fd5b818110611e13575050565b60008155600101611e08565b908060209392818452848401376000828201840152601f01601f1916010190565b15611e4757565b60405162461bcd60e51b815260206004820152600d60248201526c496e76616c696420737461746560981b6044820152606490fd5b91908201809211611e8957565b634e487b7160e01b600052601160045260246000fd5b15611ea657565b60405162461bcd60e51b81526020600482015260116024820152704f6e6c79207061727469636970616e747360781b6044820152606490fd5b15611ee657565b60405162461bcd60e51b815260206004820152601b60248201527f4f6e6c7920696e69746961746f722063616e20776974686472617700000000006044820152606490fd5b15611f3257565b60405162461bcd60e51b815260206004820152601f60248201527f43616e6e6f7420617070726f766520796f7572206f776e2072657175657374006044820152606490fd5b811561202057600080808094819460018060a01b03165af1903d1561201a573d9067ffffffffffffffff82116120065760405191611fbf601f8201601f191660200184611a0d565b825260203d92013e5b15611fcf57565b60405162461bcd60e51b815260206004820152600f60248201526e151c985b9cd9995c8819985a5b1959608a1b6044820152606490fd5b634e487b7160e01b81526041600452602490fd5b50611fc8565b505056fedf6966c971051c3d54ec59162606531493a51404a002842f56009d7e5cf4a8c7a2646970667358221220d487cecfaf539f99a612e1fd4af7b50b73f999d2fb59372a23e5fb879753b4ab64736f6c63430008140033",
  "linkReferences": {},
  "deployedLinkReferences": {}
}